:020000040000FA
:060000000A128A11F82F1C
:100EFE0072088312031393008C1D862F872F832F66
:100F0E008C11080083120313941283160313071611
:100F1E008516871287118312031314128316031377
:100F2E0014179417F03083120313940594160800C7
:100F3E007030831603138F040F1083160317880166
:100F4E008901FF3083160313860088010330850064
:100F5E008312031386018801831603138113013054
:100F6E00950001170A128A1189270A128A110B1786
:100F7E008B17D32F6130F4007408F2000A128A1115
:100F8E007F270A128A11831203138814061BD02F8F
:100F9E00D12FD32FF001F101700371040319D82F53
:100FAE00D92FC12FEE2F6230F4007408F2000A120E
:100FBE008A117F270A128A11831203138810861B47
:100FCE00E92FEA2FEE2F0130F0000030F10070080B
:100FDE0071040319F32FF42FDA2FD32F0A128A116B
:100FEE000028F001F101F201F30183010A128A11C6
:020FFE009F2F23
:04400E00E52FFF3F5C
:00000001FF
